:100000000C944707189518951895189518951895F4
:100010001895189518951895189518951895189578
:100020001895189518951895189518951895189568
:100030001895189518951895189518951895189558
:100040001895189518951895189518951895189548
:100050001895189518951895189518951895189538
:10006000189518951895189530980031FF8F32A083
:100070002833A056344EF635F6F536185C37D6518F
:1000800038440439E00009000100014D021F010459
:10009000BCF00500A107124C0880080A00040B40C0
:1000A000410C7E000D00000E169D0F802F10B0F841
:1000B00012E00013A1141481911569621600021751
:1000C000000218B14019780F1A3F041C58000D0A9D
:1000D000002A2A2A205452323461206465627567EE
:1000E00020636F6E736F6C65202A2A2A0D0A004800
:1000F000656C6C6F20576F726C64212053504952AD
:1001000049544F4E20545232344120322E34474805
:100110007A206D6F64756C65000D0A53656E6469B5
:100120006E672050494E472E2E2E000D0A3A2D297B
:1001300020504F4E472072656365697665642100E3
:100140000D0A3A2D28204C6F6F73652120233A2029
:1001500025303458000D0A3A2D28204D65737361FF
:10016000676520697320636F7272757074656421AE
:1001700020233A20253034580025303258002A2ACE
:100180002A20526567697374657273207461626CAA
:10019000653A0D0A002A2A2A204672616D6572208E
:1001A0007461626C653A0D0A003031323334353691
:1001B00037383941424344454600303132333435D3
:1001C0003637383961626364656600286E756C6C19
:1001D00020706F696E74657229003F3F3F00000117
:1001E00097069106456806025B0611E0050BA1051E
:1001F00001FF05016806016606015B0602FF0505B1
:100200008E0501D30501E00503AA0502E00503DC24
:1002100005FB2A980000102F1F771EBD1DB517FF84
:10022000FDCF00003EBD1DB517FFFDCF00002EBD68
:100230001DB517FFFDCF0000003218F408E00A9545
:10024000F1F72A9A0000000008952A980000102F64
:1002500010681EBD1DB517FFFDCF0F77003218F4D3
:1002600008E00A95F1F70FEF0EBD0DB507FFFDCFC2
:100270001EB500000FEF0EBD0DB507FFFDCF2EB56B
:1002800000002A9A00000000022F089520E830E0C4
:1002900002E5BFDF0FE017E201501040E9F700C0B0
:1002A000000020E830E007E0B4DF0FE017E2015083
:1002B0001040E9F700C00000089520E031E007E0B9
:1002C000A8CFBA93AA939A938A93A02FC9015D9A53
:1002D00020E030E802E59DDF00C000C000C000C0A3
:1002E0002A98000000E50EBD0DB507FFFDCF000008
:1002F000000000000000A03408F0AFE3AEBD0DB573
:1003000007FFFDCF0000AA2351F0B0E0FC010081FF
:100310000EBD0DB507FFFDCF01961197B9F700008F
:100320002A9A000000000000000020E031E007E011
:1003300070DF4A9BFECF5D9820E030E802E569DF80
:1003400020E030E007E065DF0FE017E201501040E9
:10035000E9F700C0000089919991A991B991089598
:100360008A93F8015E9A2A98000000ED0EBD0DB543
:1003700007FFFDCF00000000000000000FEF0EBDE2
:100380000DB507FFFDCF8EB5803410F08FE302C0AE
:10039000882351F0182F0FEF0EBD0DB507FFFDCFCD
:1003A0000EB501931A95B9F700002A9A00000000D3
:1003B0000000000020E830E002E52BDF20E030E024
:1003C00007E027DF0FE017E201501040E9F700C017
:1003D00000005E98082F899108959A938A9380E08F
:1003E00090E054DF4A9907C08C0101960F3F0FEF50
:1003F0001F4FC1F701C001E08991999108955A9268
:100400004A92AA939A938A93299A0FE017E201508D
:100410001040E9F700C0000088E690E0AAE0FC0187
:1004200031963491FC0132962491FC010491F1DE65
:100430000396AA95A1F70FE017E201501040E9F7E3
:1004400000C0000000E401DF00E00030104C09F0C3
:10045000FFCF86E890E0A4E1FC0131963491FC01E5
:1004600032962491FC010491D4DE0396AA95A1F75B
:100470000FE017E201501040E9F700C0000020E053
:1004800030E007E0C6DE0EE711E00E94660A80E079
:10049000082FDBDE280190E09A938A9309E711E0A8
:1004A0000E94660A22960AE30E94B5029A935A9223
:1004B00009E711E00E94660A22969A934A9209E798
:1004C00011E00E94660A22960EEC10E00E94660A75
:1004D00083958032E8F205E911E00E94660A88E619
:1004E00090E0AAE0FC010491B0DE2801FC01049137
:1004F00010E01A930A9309E711E00E94660A229617
:100500000AE30E94B50210E01A935A9209E711E03B
:100510000E94660A229655245A924A9209E711E0EF
:100520000E94660A22960EEC10E00E94660A03966C
:10053000AA95C1F60EEC10E00E94660A00E485DE82
:10054000402E5A921A9309E711E00E94660A2296F9
:100550005A924A9209E711E00E94660A229689910E
:100560009991A9914990599008951091C00015FF53
:10057000FCCF0093C600089509C0232F3091C0001E
:1005800035FFFCCF2093C6000F5F1F4FF80130816D
:10059000332399F7089500E00093C1000093C00051
:1005A00006E00093C2000CE00093C40000E000935A
:1005B000C50008E10093C10008950EE204B900EE01
:1005C0000AB95A9A5B9A2A9A299804E50CBD01E067
:1005D0000DBD0895BA93AA9300E0E0ECF2E0008329
:1005E0000183028303830E94CB020EEC10E00E9481
:1005F000660A01ED10E00E94660A0EEC10E00E940F
:10060000660ADBDF0E94FF015F9A0FEF14E32CE024
:10061000015010402040E1F700C000005F9818C072
:10062000E0ECF2E0028113810F5F1F4F028313831E
:100630001A930A9300E411E00E94660A22960FEFD3
:1006400019E628E1015010402040E1F700C0000009
:100650000E945D010FEE10E00E94B60AEFEEF0E09E
:10066000A0E8B2E00E94560A09E111E00E94660A81
:1006700000E812E00E94AC0A20E832E00E9461012A
:100680000E94ED01013061F600E812E00E94B00125
:1006900000E812E00E94BC02EFEEF0E0A0E8B2E059
:1006A0000E949D0A012B69F0E0ECF2E000811181CB
:1006B0000F5F1F4F008311831A930A9305E511E022
:1006C000BBCF0BE211E00E94660AB9CF000088950B
:1006D000FECF0E942E0AD8D36A017B015B016624FB
:1006E00077244FD156D120F160E070E00E94B60926
:1006F000B1F50989002309F444C06C147D044CF45D
:100700000CEF60160FEF700624F000E0088BC6189F
:10071000D7080FEFC00ED01E0A89002381F100E038
:10072000098B2FC026D10E943709AED30AE092D39D
:1007300047EB53E46AEB71E52BD1A0F326D160E2DD
:1007400071E426D1B0F60E9437099ED301E082D32E
:10075000F5CF0FD197D306EF600E0FEF701E40E07C
:1007600057EE6BED7EE20AD1A0F30BD107D108F66C
:1007700060E271E487D30FEF600E701EF6CF01E0E8
:100780000A8B0889002319F000E010E023C07720CD
:10079000EAF4DAD02601E4D08824992404C0D4D025
:1007A0000FEFC00ED01E0FEF800E901E681479045C
:1007B0001CF40C2D0D2999F70FEF1FEF04191509E3
:1007C000601671060CF471C001E0DFCF8301119552
:1007D0000195104048011EC0DED00E940B08402E3B
:1007E0002BD30E940008A801B901D5D00E94A1080E
:1007F000A801B90100E010E020E231E443D3042D68
:10080000005DA3D0940101E0800E00E0901E232B38
:1008100009F4A6D0C814D904FCF6B7D060EA70E495
:10082000B7D008F042C044244394C5010197870122
:10083000FC0120812E3251F0240D20832A3329F42B
:1008400020E320834424439401C0442401970E17DD
:100850001F0770F3442049F128892223B1F0C50114
:1008600003C0FC01208301970817190750F4FC010D
:10087000329721812E32A9F72081FC012083019734
:10088000F2CF01E0600E741E0DC021E0A20EB41E76
:10089000C50105C0FC012291FC01208301970817C6
:1008A0001907C0F301E3F70100830989002321F44C
:1008B0000CC00FEFA00EB01EF50102910033C9F37A
:1008C0000E3219F40FEFA00EB01E08890023C1F1FB
:1008D000F501019377203AF40DE238D071946194D8
:1008E00000E0700A02C00BE231D0442455240AE033
:1008F000A00EB41C01E0A5D251D0405DF50141939A
:100900005F014CD03801012BA9F702E0401600E04E
:10091000500684F3420182011CD02081840119D049
:10092000E40DF51D3B9720830FEF400E501E01E0B4
:10093000401600E050067CF706EFA00E0FEFB01E49
:100940008501E3E10C943F0A00E3F50101935F01A7
:100950000895119501951040F501E00FF11F0895DC
:100960000C2D0D2919F40A89002311F00EE2EEDF97
:10097000089549EF52E065E170E508950CD00C94BC
:10098000C00903D060E87FE3089540E050E0089597
:1009900002D00C94D8098C019D0108954AE050E0E2
:1009A00083010C9479070E94300AEF97EF976C97B8
:1009B00009831A832B873C874D875E876C837D83F1
:1009C00000E009870A8704C024D220D205E22AD297
:1009D00000E0088B098B02C019D224D210D2053254
:1009E00051F00023C9F709851A85EF96EF966C96AA
:1009F000EEE00C94410AFFD1053231F300E00F83A1
:100A000008870E830B833E0104E124D209EA11E03A
:100A10000A8B1B8B06C00B81002311F404910B83FE
:100A2000F8D1E9D10052B9F3035059F00850B1F3AD
:100A3000025019F0035049F00CC00E8103950E834B
:100A4000EFCF088503950887EBCF0F8103950F83C0
:100A5000E7CF04910A3289F4BFD1AD90BD90B9D1EE
:100A6000BB203AF4B194A19400E0B00A0E81039542
:100A70000E8309811A81CED114C0AA24BB240CC0D4
:100A8000B5D185010E945907A82EBB24A00EB11E26
:100A900000EDA00E0FEFB01EAED1003310F00A3300
:100AA00078F30E81002311F000E00F83E981FA81D1
:100AB00005910E3209F5E983FA8304910A3241F473
:100AC0008BD18D909D9085D109811A81A3D117C0BA
:100AD0008824992490D1003390F00A3380F486D191
:100AE00084010E945907882E9924800E911E00EDE2
:100AF000800E0FEF901EEECF88248A94982C80E011
:100B00007AD10C5421F00C5119F0045011F481E009
:100B100080D175D1EEEDF1E00C94E909882359F00C
:100B200049855A85652F660F660B47D140835183EF
:100B3000628363834DCF29853A853FD120833183FA
:100B400047CF4AD10D91119644D10C8B2E0105E16E
:100B500078D1F6C041D16D907D903BD1062D07290B
:100B600031F40BEC11E0088B198B0DE0E7C09920F4
:100B700022F400E1802E07E2902E80E090E001C098
:100B80000196F30101913F01002319F088159905A1
:100B9000BCF30FEF600E701E23019195819590407C
:100BA000680E791ECDC00885002331F0082D092973
:100BB00019F49924882483940AEB11E00A8B1B8B87
:100BC0000881003759F408D18D919D9102D1A0E0A0
:100BD000B0E000E1C02EDD24DB8225C002D111F09F
:100BE000F6D003C0F6D020E030E04ED108810F36B9
:100BF00011F408E0EFCF053761F70AE0EBCFF1D051
:100C000011F0E5D002C0E5D017D13ED133234AF42C
:100C10000DE20B839095A095B09581959F4FAF4FB6
:100C2000BF4F0AE0C02E3E0109E914D12E0109E9A7
:100C300008D1082F092B0A2B0B2B11F001E001C062
:100C400000E00F87082D092919F40F850023A9F06A
:100C500005D1EA89FB89E00DF11D0491F7D0FED0A2
:100C600013D1012B022B032B99F7992032F40F811A
:100C7000002319F0FAD001C0E8D08E0107561F4FAB
:100C800097D0D4F30885002309F45AC00F850023B8
:100C900009F456C00881083711F0083511F4D6D090
:100CA00008C00F3609F04CC0F3010081003309F48D
:100CB00047C0CBD045C081E0088102500883082D91
:100CC000092939F499248824839408C000E0088312
:100CD00080E099201AF406E0802E992483D077D002
:100CE00054DE60E070E00E94C00918F44DE24B83CE
:100CF00030583E0144E1640E751E6A0C7B1C488529
:100D00004A938A934A814A93B301A401E2DC280101
:100D10000F810023A9F0A9D082014AD08CF495D08C
:100D2000FBCF09811A810150104009831A830AED13
:100D300011E0088B198B6624772403E0402E55249C
:100D4000420186189708A814B9041CF480E090E0CA
:100D500007C091D0A818B90810E0A01AB10AC501BF
:100D60000E81002321F401C05AD00197EAF70B81CC
:100D7000002389F04BD00EC008891989012B46D079
:100D800031F0E889F12F0591E88BF98B03C0F3016D
:100D900001913F0147D00FEF800E901E6AF70E8140
:100DA000002309F415CE01970AF412CE38D0FBCFF8
:100DB00006191709081519050895AC81BD81ED9133
:100DC000FC9101911191FC93EE93F80108952D91FE
:100DD0003D91A083B1830895EC81FD81A081B18113
:100DE00008958823F9DF0D911D9108958591E98378
:100DF000FA834AE0CBCDE981FA8104910895E98133
:100E0000FA810591E983FA83088308952D853E854B
:100E100008958F010F5F1F4F09831A8308952D8551
:100E20003E8500E2EB85FC85099509851A850F5FF3
:100E30001F4F09871A870895212F220F220B322F67
:100E40000895400E00E0501E089500E3F301029360
:100E50003F010895600E00E0701E08954C2D50E093
:100E600060E070E098DD0C94950705D010E0450136
:100E7000801A910A08950B81002311F001E0089572
:100E800000E008950E94BE08C801D90108950FE747
:100E90000DBF02E00EBFC0E0D2E00E94540A002362
:100EA00011F00E94830A0E94EA020E9466030C94D9
:100EB0006603149F102D059F100D049F002D110D2A
:100EC000089500241124EFE0001F111F001C111CC5
:100ED0000416150610F0041A150AEA95AAF7001F61
:100EE000111FA0010095109508955195419550400E
:100EF0000895FF27552312F4F160F7DF112312F450
:100F0000F09507D00E946107F0FD03D0F1FDEDCF11
:100F1000089511950195104008954A952AF0369547
:100F2000279517950795F9CF0895002411241001EE
:100F3000E0E2EA9592F0001F111F221F331F001CF0
:100F4000111C221C331C041615062606370688F3CE
:100F5000041A150A260A370AECCF001F111F221F98
:100F6000331FA001B101009510952095309508958B
:100F700030952095109501951F4F2F4F3F4F0895A5
:100F8000FF27112477FB660F771F089409F4771F5A
:100F9000679517F8EE27002437FB220F331F0894BC
:100FA00009F4331F279507F8089527FD0EC0EE0FAB
:100FB000001F111F221F3A953230B8F7332319F45E
:100FC00027FD31E002C027FF30E0E03821F400FFC8
:100FD00008940EF488940F4F1F4F2F4F3F4F32301D
:100FE00038F4332319F427FD31E002C027FF30E045
:100FF0003F3F29F0220F000C379527950895AAC08E
:10100000032E002012F40E94B807E02F012F122FA8
:10101000232F3EE9D1CFBEDF432F4F5748F04F314A
:1010200048F007FC91C03FE72FEF1FEF0FEF089547
:1010300033278CC0322F212F102F0E2F4F51419567
:101040000E948D0707FE08950C94B807F901EE0F72
:10105000FF1F37FBFF3F31F0EF2BE12BE02B889494
:10106000B8940895E02BE12B21F008949894B8945B
:1010700008959894889438940895FB01EE0FFF1F0B
:1010800077FBFF3F31F0EF2BE52BE42B8894B894EE
:101090000895E42BE52B69F3E8CFEFDF68F021F446
:1010A0003723262F8A010895372FFBCFE6DF20F064
:1010B0000BF008957327EAF751C0C8DFE8F3B3F3E4
:1010C00061F3DBDFC8F383F3A1F35ADF4017510765
:1010D0006207730731F4011411F10024E894889435
:1010E0002BC078F0332E372F732D322E262F632D01
:1010F000312E152F532D302E042F432D302C012C43
:10110000132C371739F0669557954795F795E040BA
:101110007395F7CFE7FBEE0FE0E010246AF0EF0FD6
:10112000041F151F261F60F4279517950795E7954F
:1011300008F46894339540CFEF0B040B150B260B86
:101140003BCFE0E87E27B9CF302D3078222711271A
:10115000002708953FE7302920E8F9CF3FEF2FEF30
:10116000F6CF8BDFD8F3D1F370783727089585DF7A
:10117000A8F3A3F3F9CF3078372793CF67DF70F365
:1011800083F3A9F37ADF50F3B3F3A9F3F9DE012473
:10119000E8943F57E040370FEF1F12F0D9F603C035
:1011A0003A3E90F26894E0E00A92AA933A93AA2712
:1011B000332422243327049FF001059FF00D712D65
:1011C000731F149FF00D711D221C069F700D211CB2
:1011D000331C159F700D211C331E249F700D211C84
:1011E000331E169F200C311CAA1F259F200C311C7A
:1011F000A31F269F300CA11D39915EF43395A6954F
:10120000379427947795F795E79533953130BCF36C
:1012100016C0AA2322F0332351F4339510C033951E
:1012200071F4A991099096CFA7FD09C03A95EE0FE8
:10123000FF1F771F221C331CAA1F3230A8F7E89427
:10124000FE2B09F068942A2F8101E72FA9910990BC
:10125000BCCE13DF10F00BF087CF80CF0EDFE9F3A9
:10126000E0F3032E072670CF032E072673CFEEDEA2
:10127000A0F37BF399F301DF80F39BF3A9F380DE06
:10128000012427FD06C0000F111F221F3150E0402E
:10129000F8CF67FD06C0440F551F661F7150F04020
:1012A000F8CFE894371BEF0B3158EF4F2AF0EE23BD
:1012B000E9F63F3FD9F203C03A3EA8F26894E0E075
:1012C000F0E01124139440175107620738F03150B1
:1012D00008F46894000F111F221FEE1F041B150B4A
:1012E000260BEF0B000F111F221FEE1FAA9379E1AF
:1012F0007A95AAF0041715072607EF0730F0041BAC
:10130000150B260BEF0B089401C08894111C221CAE
:10131000331CAA1F000F111F221FEE1FE9CFF0F987
:10132000E894E22BE12BE02B09F06894A695379422
:1013300027941794E79508F468947395B9F3A991E5
:10134000332311F0F0FF09C0369427941794E795E2
:1013500008F4689433953130BCF3012D122D232D00
:1013600034CE8BCE98940895189408956FDED0F300
:10137000C1F383DEB8F3041715072607370708956E
:101380007CDEA0F063DE90F029F0E32FE7273AF44B
:101390007317089572DE51F04EF008940895041703
:1013A00015072607370719F016F4B8F7889408953B
:1013B00064DEE0F34BDED0F3E7DFC0F3089408957A
:1013C0007591659155914591159011FA259035903B
:1013D0000895F9DF041B10E003C0F4DF041B150BB4
:1013E00020E030E005C0ECDF041B150B260B370BAB
:1013F000B8F010FC17C045910590E00FF11F0417DD
:10140000100540E02407340758F436F40491002412
:10141000F101E01BF0090994E00FF11F25903590D0
:10142000F101099411F4D6F7F1CF31960EF031960F
:1014300050E060E070E045914B3F48F089F34F3F4A
:1014400029F04E3F11F07591659155914591041B1E
:10145000150B260B370B39F318F3E7CFFA92EA9204
:10146000DA92CA92BA92AA929A928A927A926A92DC
:101470005A924A92BA93AA939A938A930895FF84B0
:10148000EE84DD84CC84BB84AA84998488847F80A4
:101490006E805D804C80BB81AA8199818881F0E05B
:1014A000EC0FFD1FEF01089501E008959D01402F0D
:1014B000412B39F045914D9301501040402F412B65
:1014C000C9F78901089510E00C94B50222979E0196
:1014D0002E5F3F4F28833983BE0140E050E023E672
:1014E0003AE00E94D3042296089520E006D0E9F75E
:1014F0000895259102D0E9F708952D9301501040E9
:10150000202F212B089580E895E1FC01059114918D
:10151000FC013296A591B491FC0134962591349149
:10152000422F432B19F0F901E4DF01C0DEDF0696FC
:1015300015E18638910748F308950D91259102171A
:1015400021F40023D1F700E005C018F40FEF1FEFDE
:10155000089501E010E00895F80101C0319620815E
:101560002223E1F7E01BF10B8F010895F80101C080
:10157000319624912223E1F7E01BF10B8F010895AE
:061580004400800200009F
:00000001FF
:00000001FF
